:100000000C94B6000C94D3000C94D3000C94D30041
:100010000C94D3000C94D3000C94D3000C94D30014
:100020000C94D3000C94D3000C9432060C94D3009F
:100030000C94D3000C94D3000C94D3000C94D300F4
:100040000C94D3000C94D3000C94D3000C94D300E4
:100050000C94D300030CF20CFF0C190D260D330D7C
:100060004D0D5A0D0C0D400D810D8E0D9B0DA80DE3
:10007000B50DC20DCF0DDC0DE90DF60D1D0E2A0ECE
:10008000030E100E670D740D370E440E510E5E0EEA
:100090006B0E780E850E4F0C130C270C1D0C3B0CB1
:1000A000450C310CC60C8A0C9E0C940CB20CBC0C8A
:1000B000A80C910E980EAD0EB40E9F0EA60EBB0EA0
:1000C000C20ED70EDE0EE50EEC0EC90ED00EF30EEC
:1000D000FA0E010F080F0F0F160F6B0F720F870F1D
:1000E000900F990FA20FB40FC60FCF0FD80FBD0FEF
:1000F000AB0F5A10FF0F0B106E10E10FF00F7910BD
:100100009710241024102A102A10301030103610A6
:10011000361042104210481048103C103C104E104F
:100120004E104E10541054105410CE10DB10EA1024
:1001300044110811171126115311F91035118011AE
:100140008F11A211B511C811DB114D126012EE1101
:1001500001123A12731214122712621171118612CF
:100160009912AC12BF12D212E512F81211241FBE5E
:10017000CFE5D8E0DEBFCDBF15E0A0E6B0E0E6E415
:10018000F1E302C005900D92AC34B107D9F726E037
:10019000ACE4B5E001C01D92A334B207E1F70E94C0
:1001A00084050C94A1180C94000029B330E0082EAB
:1001B00002C0359527950A94E2F720FF5AC041E026
:1001C00050E0082E02C0440F551F0A94E2F79BE34B
:1001D00003C0915009F443C025E02A95F1F70000CF
:1001E00029B330E024233523232B99F742C029B3C8
:1001F00030E0082E02C0359527950A94E2F720FDDD
:1002000013C08FEF0895915061F125E02A95F1F721
:10021000000029B330E024233523232BA1F33DC074
:100220002B5F2F3F49F41FC041E050E002C0440F54
:10023000551F8A95E2F725E08AE18A95F1F700C01B
:1002400089B390E084239523892B51F786EF820FA1
:10025000843258F02753243250F08FEF08958FEFF7
:1002600008958FEF08958FEF089580E0089581E05D
:10027000089529B330E0082E02C0359527950A94D9
:10028000E2F720FDB4CF41E050E0082E02C0440F59
:10029000551F0A94E2F79BE3B8CF29B330E0082E4C
:1002A00002C0359527950A94E2F720FDBDCF20E0E6
:1002B000D1CF0F931F93CF93DF93D82F08E010E097
:1002C00080E0C82FCC0F8D2F0E94D5008C2B0150C1
:1002D0001109B9F7DF91CF911F910F9108959AB34A
:1002E00041E050E0082E02C0440F551F0A94E2F787
:1002F000942B9ABB2BB3942F909529232BBB2FEFD4
:1003000039EF60E0215030406040E1F700C000006C
:100310002BB3242B2BBB2AB392239ABBF89429B37B
:1003200030E0082E02C0359527950A94E2F720FDAB
:1003300005C060E011C0915011F40DC098EC25E0AB
:100340002A95F1F7000029B330E024233523232B2D
:1003500091F760E001C061E029B330E0082E02C0EF
:10036000359527950A94E2F720FF05C00FC09150FC
:1003700019F46F5F0BC095E535E03A95F1F7000091
:1003800029B330E024233523232B89F329B330E02C
:1003900002C0359527958A95E2F720FD05C00FC06C
:1003A000915019F46F5F0BC095E585E08A95F1F7E0
:1003B000000029B330E024233523232B89F7862F2F
:1003C0000895DF92EF92FF920F931F93CF93DF93E5
:1003D00000D000D01F92CDB7DEB7182F0E946F015A
:1003E00081112CC0812F0E945901D82E812F0E948B
:1003F0005901E82E812F0E945901F82E812F0E9469
:100400005901082F812F0E9459012E2D30E02D0D0A
:10041000311D2F0D311D200F311D482F50E02417A5
:10042000350731F4D982EA82FB820C838D830BC0BD
:10043000D982EA82FB820C838D8305C019821A82DD
:100440001B821C821D8229813A814B815C816D81D6
:1004500070E080E090E00F900F900F900F900F9061
:10046000DF91CF911F910F91FF90EF90DF90089552
:10047000992364F0BC0180E090E00E941E1720E008
:1004800030E040E251E40E947D160895BC0180E016
:1004900090E00E941E1720E030E040E251E40E940C
:1004A0007D1690580895CF92DF92EF92FF920F93AE
:1004B0001F93CF93DF93CDB7DEB72D970FB6F89488
:1004C000DEBF0FBECDBF0E94E101C42E052F832FDA
:1004D00090E0922B0E943802162FD72EE82EF92E8C
:1004E000802F90E09C290E943802E62F272F412F71
:1004F0005D2D6E2D7F2D49835A836B837C834E2F18
:10050000522F682F792F4D835E836F837887212F39
:100510003A814B815C816E2F7E818F8198852D96EB
:100520000FB6F894DEBF0FBECDBFDF91CF911F9104
:100530000F91FF90EF90DF90CF9008954F925F92D0
:100540006F927F92AF92BF92CF92DF92EF92FF9223
:100550000F931F93CF93DF93CDB7DEB760970FB69E
:10056000F894DEBF0FBECDBFA982BA82CB82DC82F7
:10057000ED82FE820F83188729873A874B875C8735
:100580006D877E878F87988BE22ECA84DB84F52E59
:10059000182FF894863011F0811106C060E08F2D7D
:1005A0000E94EC1578946FC0822F0E943D08F601DE
:1005B00091838083EB81FC81A080B180A80EB91E5D
:1005C000F601B182A08260914C0570914D05809139
:1005D0004E0590914F0524E630E040E050E00E9447
:1005E0004218EF81F88580819181ECE3E89FB001AA
:1005F000E99F700D11242B01770F6608770880E8BA
:1006000091E5A1E0B0E084199509A609B70928177A
:1006100039074A075B0760F5113051F5B50180E0F5
:1006200090E00E941E1720E030E040E251E40E947A
:100630007D162B013C01E981FA8160817181072ED1
:10064000000C880B990B0E94201720E030E040E25C
:1006500051E40E947D16AB01BC01930182018D859E
:100660009E850E94AC13682F8F2D0E94EC1504C04C
:1006700060E08F2D0E94EC1581E08093E9058E2DBE
:100680000E942D08789460960FB6F894DEBF0FBED6
:10069000CDBFDF91CF911F910F91FF90EF90DF9031
:1006A000CF90BF90AF907F906F905F904F900895E4
:1006B000FC012785263071F020917005309171057D
:1006C0002130310521F421E0FB01278707C0FB0120
:1006D000178604C0FB012785263069F020916E053E
:1006E00030916F052130310521F421E0FC0127878D
:1006F0000895FC01178608958F929F92AF92BF9242
:10070000EF92FF920F931F93CF93DF93CDB7DEB796
:1007100028970FB6F894DEBF0FBECDBF09831A83AA
:100720002B833C834D835E836F837887DC011F9628
:100730001C91112311F0163019F4FC0116876DC0BD
:100740007C01DC011996ED91FC911A972081318191
:10075000ADECBCEC0E946A189695879596958795A6
:1007600096958795BC0180E090E00E941E174B0192
:100770005C0120E030E04AEA52E40E9478168111E0
:1007800004C082E0F701868748C020E030E04EEFE9
:1007900052ECC501B4010E947816811105C082E0B7
:1007A000D7011E968C9339C020E030E046E952E430
:1007B000C501B4010E94D017181644F485E0F70172
:1007C00086878AEF90E00E940B0A27C020E030E085
:1007D00048E452E4C501B4010E94D01718162CF465
:1007E00084E0D7011E968C9318C02D813E814F81E5
:1007F0005885C501B4010E940B169F7720E030E0B8
:1008000040EA50E40E94D017882324F082E0F701E8
:10081000868703C0D7011E961C9328960FB6F894BE
:10082000DEBF0FBECDBFDF91CF911F910F91FF9023
:10083000EF90BF90AF909F908F900895CF93DF93EC
:10084000EB010E945302288339834A835B836C83C4
:100850007D838E839F83DF91CF9108958F929F92A6
:10086000AF92BF92CF92DF92EF92FF920F931F93BE
:10087000CF93DF93CDB7DEB728970FB6F894DEBFDE
:100880000FBECDBF0E94AA0882E00E94FD080E9410
:10089000D4080E94780A83EB0E94C0086BE670E0DF
:1008A00082E196E00E940D0B65E770E083E296E03E
:1008B0000E940D0B0E94FA0A2FEF8BE792E921505C
:1008C00080409040E1F700C0000081E00E94FD08F8
:1008D0006FE770E082E196E00E940D0B6AE870E03D
:1008E00083E296E00E940D0B0E94FA0AAFEFBBE78D
:1008F000E2E9A150B040E040E1F700C000000E94F2
:1009000019090E94FA0A0E94100AFFEF2BE782E9F8
:10091000F15020408040E1F700C000000E94B7087D
:1009200089E190E00E940B0A88E0E3E6F0E0DE0156
:10093000119601900D928A95E1F7BE016F5F7F4F8E
:1009400081E00E94E00A60E070E081E00E945C0FBC
:100950000E94EC0BEAEFF5E010868AE595E09583BE
:1009600084838EE595E09383828386E595E0918389
:10097000808382E695E09783868387ED95E0928772
:10098000818713868DEB95E095878487EAEEF5E005
:1009900081E080872CE535E03583248320E635E04F
:1009A0003383228328E535E03183208324E635E054
:1009B0003783268325ED35E032872187838786EAD2
:1009C00095E0958784870F2EF0E0EF2EF0E0FF2E64
:1009D000F02D0EE715E00F2EF6E5AF2EF5E0BF2E59
:1009E000F02D0F2EFAE9CF2EF0E0DF2EF02D0F2E96
:1009F000F6EA8F2EF5E09F2EF02DC7010E947918A0
:100A0000F80191838083019629F4D6018D919C9100
:100A1000918380830E5F1F4F80819181F5018193C7
:100A200091935F01F2E0EF0EF11C22E0C20ED11CA7
:100A30000815190511F71092D8051092D7051092D4
:100A4000D6051092D5051092D4058DEB95E00E9445
:100A5000711326E735E044E755E062E775E08DEB7A
:100A600095E00E945B1386EA95E00E9471132CE7E3
:100A700035E04AE755E068E775E086EA95E00E94D0
:100A80005B13789428960FB6F894DEBF0FBECDBFE7
:100A9000DF91CF911F910F91FF90EF90DF90CF905A
:100AA000BF90AF909F908F9008950F931F93CF9317
:100AB000DF93EC01CC0FDD1F8E0102581A4FF801B5
:100AC00060817181CE01805090400E947F18CA5A87
:100AD000DA4FF8018081918199838883DF91CF91EA
:100AE0001F910F910895880F991FFC01E258FA4F4A
:100AF00071836083FC01EA5AFA4F718360838050EE
:100B000090400E947F1808950E942E048091550500
:100B1000882321F110925505A090FA05B090FB05AD
:100B2000C090FC05D090FD05E090FE05F090FF051B
:100B300000910006109101062091020630910306F3
:100B400040910406509105066091060670910706D3
:100B500080910806909109060E949E02809154059A
:100B6000882321F110925405A090EA05B090EB057E
:100B7000C090EC05D090ED05E090EE05F090EF050B
:100B80000091F0051091F1052091F2053091F305E7
:100B90004091F4055091F5056091F6057091F705C7
:100BA0008091F8059091F9050E949E02809153056D
:100BB000882341F061EE75E081E00E941E041092EE
:100BC0005305789480915205882341F069ED75E0D2
:100BD00080E00E941E041092520578948091E905ED
:100BE000882321F00E94EC0B0E94FA0A80915105A3
:100BF000882341F06AEE75E08AEF95E00E94580381
:100C00001092510580915005882309F47FCF0091FF
:100C1000E1051091E2052091E3053091E405409152
:100C2000E5055091E6056091E7057091E8058AEFCA
:100C300095E00E947C030091D9051091DA0520917E
:100C4000DB053091DC054091DD055091DE056091BA
:100C5000DF057091E0058AEE95E00E947C0310921A
:100C6000500554CF1F920F920FB60F9211248F92FE
:100C70009F92AF92BF92CF92DF92EF92FF922F930B
:100C80003F934F935F936F937F938F939F93AF9314
:100C9000BF93EF93FF93F89480914C0590914D058D
:100CA000A0914E05B0914F050196A11DB11D8093F5
:100CB0004C0590934D05A0934E05B0934F050E94AF
:100CC00046130E94E2080E94FC090E944E15789487
:100CD000C0904C05D0904D05E0904E05F0904F052A
:100CE000C701B60124EF31E040E050E00E94421815
:100CF000672B682B692BD9F48091F905863009F4AC
:100D000091C081E080935505C701B60166507F4FC1
:100D10008F4F9F4F24EF31E040E050E00E94421897
:100D20004B015C01672B682B692BB9F01CC0C70114
:100D3000B60166507F4F8F4F9F4F24EF31E040E068
:100D400050E00E9442184B015C01672B682B692B15
:100D500051F48091F905863031F081E0809354059B
:100D6000812C912C5401C701B6016C597F4F8F4FD4
:100D70009F4F24EF31E040E050E00E944218672B83
:100D8000682B692B19F481E080935305C701B601E4
:100D90006A567F4F8F4F9F4F24EF31E040E050E085
:100DA0000E944218672B682B692B19F481E080930D
:100DB0005205C701B60168537F4F8F4F9F4F24EFF5
:100DC00031E040E050E00E944218672B682B692B0D
:100DD00089F481E0809350058091D405811108C089
:100DE0008091F905863021F081E08093D40502C01E
:100DF0001092D40589288A288B2819F481E08093E1
:100E0000510584E6C81686EDD80683E8E806F104A5
:100E1000C0F010924C0510924D0510924E051092A4
:100E20004F050FC0C701B60166507F4F8F4F9F4FD0
:100E300024EF31E040E050E00E9442184B015C0199
:100E400092CFFF91EF91BF91AF919F918F917F9141
:100E50006F915F914F913F912F91FF90EF90DF90B5
:100E6000CF90BF90AF909F908F900F900FBE0F903C
:100E70001F90189597B321E030E0082E02C0220F92
:100E8000331F0A94E2F7922B97BB48B3922F9095A9
:100E9000492348BBEFE7F7E03197F1F700C00000C6
:100EA00047B3942397BB98B3922B98BBE7E0F1E04C
:100EB0003197F1F700C0000096B3EFEBF3E0319704
:100EC000F1F700C0000046B350E0082E02C055956F
:100ED00047950A94E2F740FF0CC0492F50E02423C5
:100EE0003523A90102C0559547958A95E2F7CA01B5
:100EF000089582E00895811121C027B381E090E038
:100F000002C0880F991F6A95E2F7922F982B97BB22
:100F100028B3982F9095292328BBEFEEF0E0319766
:100F2000F1F700C0000027B3922397BB98B3892B39
:100F300088BBF5E1FA95F1F700000895813001F5DD
:100F400027B381E090E002C0880F991F6A95E2F70D
:100F5000922F982B97BB28B3982F9095292328BBC5
:100F600025E32A95F1F7000027B3922397BB98B3A6
:100F7000892B88BB87ED90E00197F1F700C0000056
:100F8000089597B321E030E0082E02C0220F331FEE
:100F90000A94E2F7922B97BB48B3922F909549237E
:100FA00048BB45E04A95F1F7000047B3942397BB4F
:100FB00098B3922B98BB55E35A95F1F7000046B3CE
:100FC000E7ECF0E03197F1F700C0000050E0242397
:100FD0003523A90102C0559547958A95E2F7CA01C4
:100FE0000895EF92FF920F931F93CF93DF93182FE3
:100FF000C0E0D0E000E0EE24E394F12C812F0E94C9
:10100000C107813041F4C7010C2E02C0880F991F1F
:101010000A94E2F7082B2196C830D10579F7802F82
:10102000DF91CF911F910F91FF90EF9008951F9343
:10103000CF93DF93D82F162FC8E0612F8D2F8170AB
:101040000E947B07D695C150C1F78AE18A95F1F7D6
:1010500000C0DF91CF911F910895CF93C82F0E94B8
:101060003A07811108C06C2F8CEC0E9417086C2F76
:1010700084E40E941708CF910895CF92DF92EF92F7
:10108000FF920F931F93CF93DF93CDB7DEB72997CE
:101090000FB6F894DEBF0FBECDBFF82E19821A82AC
:1010A0000E943A076F2D8CEC0E9417086F2D8EEB73
:1010B0000E9417088E010F5F1F4F6E018AE0C80E55
:1010C000D11C8F2D0E94F107F80181938F01EC153F
:1010D000FD05B9F71A81812F887F59F5698170E084
:1010E00080E090E00E941E1720E030E040E25FE3E5
:1010F0000E94D5170E94EF1680E090E00E941E1714
:101100006B017C01612F677070E080E090E00E94CD
:10111000201720E030E040E253E40E94D5179B0105
:10112000AC01C701B6010E940C160E94EF16CB015C
:1011300002C080E090E029960FB6F894DEBF0FBEA3
:10114000CDBFDF91CF911F910F91FF90EF90DF9076
:10115000CF90089584B384BB8AB3806C8ABBBC9A59
:10116000C498BF9ABD9888B3807288BB089583B72E
:101170008D6083BF8DE98CBF89B7826089BF089578
:10118000811105C085B58F7D85BD979808958F3FE6
:1011900031F485B5806285BD8FEF83BD089595B527
:1011A000906295BD83BD089585B5886485BD85B57C
:1011B000806285BD85B5866085BD8F9A83EB0E9470
:1011C000C00808958091600090916100009759F0E7
:1011D0000197909361008093600083EB809362009D
:1011E0000E94C0080895809162008B3028F08150E1
:1011F000809362000E94C0080895813049F028F071
:10120000823049F0833051F00895DE98DF9A0895D6
:10121000DE9ADF9A0895DE9ADF980895DE98DF98C7
:1012200008958AB3837F8ABB89B38C70869586952F
:101230000895CF930E941109813009F455C008F434
:101240008AC0823071F1833009F0B4C080E00E941E
:101250003A07C82F81E00E943A0724E0829FC0012C
:101260001124C82B62E171E082E196E00E940D0B2F
:101270006DE171E083E296E00E940D0BC0FF04C0B7
:1012800082E08093090603C081E080930906C1FFD4
:1012900004C082E08093F9058EC081E08093F90557
:1012A0008AC080E00E943A07C82F60E070E08DE0BD
:1012B00090E00E94730569E271E082E196E00E948D
:1012C0000D0B6DE171E083E296E00E940D0BC0FF13
:1012D00004C082E08093090603C081E08093090680
:1012E00086E08093F90567C080E00E943A07C82F26
:1012F00081E00E943A0724E0829FC0011124C82B9C
:1013000060E070E088E090E00E94730560E070E0CB
:1013100089E090E00E94730562E171E082E196E06D
:101320000E940D0B62E371E083E296E00E940D0BD8
:10133000C0FF04C082E08093090603C081E080936F
:101340000906C1FF04C082E08093F90534C081E042
:101350008093F90530C080E00E943A07C82F60E012
:1013600070E08DE090E00E94730560E070E088E03E
:1013700090E00E94730560E070E089E090E00E94D8
:10138000730569E271E082E196E00E940D0B62E371
:1013900071E083E296E00E940D0BC0FF04C082E082
:1013A0008093090603C081E08093090686E080935C
:1013B000F90501C0C0E0C11104C080E00E94FD0831
:1013C00003C082E00E94FD08CF910895C79A85E38B
:1013D0008A95F1F70000B59B0CC0C79885E38A9504
:1013E000F1F7000086B385FB992790F981E0892702
:1013F00001C080E0C798089580910A0690910B067D
:10140000009739F0019790930B0680930A06C49ACF
:101410000895C498089590930B0680930A06089542
:101420000E94391525E04BE350E06AE370E080E06C
:101430000E94F51561E080E00E94021660E080E005
:101440000E94EC150E941109813021F00E941109BF
:10145000833081F424E04BE350E06AE370E081E004
:101460000E94F51561E081E00E94021660E081E0D3
:101470000E94EC150E94CC140895959A8AE68A95EC
:10148000F1F700C09598089592B3907F92BB92B304
:1014900082958F70982B92BB0E943D0A0895CF933E
:1014A000C82F949A0E94440A8C2F8295807F0E94B4
:1014B000440A85EF8A95F1F70000CF910895CF9304
:1014C000C82F94980E94440A8C2F8295807F0E9496
:1014D000440A80EE8A95F1F7CF91089581E00E9449
:1014E0005F0A8FE39FE10197F1F700C000000895C4
:1014F00081B38F6381BB82B3807C82BB8FE59AEE20
:101500000197F1F700C0000080E30E94440A8FE1D8
:101510009EE40197F1F700C000000E943D0A8FE9A8
:101520009FE00197F1F700C000000E943D0A8FE99B
:101530009FE00197F1F700C0000080E20E94440A9A
:101540008FE19EE40197F1F700C0000088E20E945D
:101550005F0A8CE00E945F0A86E00E945F0A0E9498
:101560006E0A089582E00E945F0A8FE39FE101976F
:10157000F1F700C000000895623059F018F46130AE
:1015800031F00895633039F0643039F008958058AF
:1015900005C0805403C0805701C080530E945F0A79
:1015A0000895CF93DF93EC018881882331F0219651
:1015B0000E944F0A89918111FBCFDF91CF9108954D
:1015C0000F931F93CF93DF938B0128E0829FC0017D
:1015D000112480640E945F0AE801085F1F4F89910F
:1015E0000E944F0AC017D107D1F7DF91CF911F9109
:1015F0000F9108951092E9050E946E0A0E94B20AA6
:1016000082E196E00E94D10A62E080E00E94BC0A7A
:1016100083E296E00E94D10A0895CF93DF939C0164
:10162000FB018081F9018083FB018081882371F0B7
:10163000D90111963196605F7F4FEF0191919D9393
:101640009881992319F0E617F707B9F7F901108A7D
:1016500081E08093E905DF91CF910895FC0101902D
:101660000020E9F73197E81BF90B9F012150310960
:10167000121613067CF4E80FF91FDC0180E090E0FD
:101680004C9152915D93408301962150310982170C
:101690009307B4F30895AF92BF92CF92DF92EF9287
:1016A000FF920F931F93CF93DF93CDB7DEB7619770
:1016B0000FB6F894DEBF0FBECDBF7C01AB015B015E
:1016C00077231CF45195419551098E010F5F1F4FEF
:1016D000C12CD12C01C06F01F60131969A01ADECFD
:1016E000BCEC0E946A189695879596958795969575
:1016F00087959C01220F331F880F991F880F991F10
:10170000880F991F820F931F9A01281B390BC9015B
:10171000805DD8018D938D019A01ADECBCEC0E94E7
:101720006A18AC0156954795569547955695479535
:101730004115510581F6BB2034F4EC0FFD1F8DE2FD
:101740008183F60132968E010F5F1F4FE00FF11F6C
:101750001082C8010E942E0BF70101900020E9F7CA
:101760003197EE19FF09CF010197D8010D900020A4
:10177000E9F7AD01401B510B425051099923C4F0C8
:10178000EE0DFF1D60E231972081233279F455235D
:1017900064F021E030E02C0F3D1F240F351FD901EC
:1017A0002C9120834150510901C0608301975AF761
:1017B00081E08093E90561960FB6F894DEBF0FBE15
:1017C000CDBFDF91CF911F910F91FF90EF90DF90F0
:1017D000CF90BF90AF900895E2E1F6E022E236E0CC
:1017E00080E28193808BE217F307D9F7E09111062D
:1017F0008E2F90E08132910508F04DC3FC01E65D2B
:10180000FF4F0C9464188091D405811174C08091AD
:10181000080690E08730910508F04AC0FC01E55BBE
:10182000FF4F0C9464186FE371E082E196E00E9430
:101830000D0B80E00E94FD083BC061E571E082E194
:1018400096E00E940D0B80E00E94FD0831C063E627
:1018500071E082E196E00E940D0B82E00E94FD089B
:1018600027C065E771E082E196E00E940D0B82E0FF
:101870000E94FD081DC063E871E082E196E00E94CD
:101880000D0B81E00E94FD0813C066E971E082E162
:1018900096E00E940D0B82E00E94FD0809C066EAF6
:1018A00071E082E196E00E940D0B83E00E94FD084A
:1018B00065EB71E083E296E00E940D0B6091D70525
:1018C0007091D80582E196E00E944B0B20E030E059
:1018D00040E251E46091E1057091E2058091E305F9
:1018E0009091E4050E94D5170E94EF1683E296E0DE
:1018F0000E944B0BDCC2813009F0D9C28091F805FF
:1019000090E08730910508F04AC0FC01EE5AFF4F85
:101910000C94641865EC71E082E196E00E940D0B76
:1019200080E00E94FD083BC067ED71E082E196E037
:101930000E940D0B80E00E94FD0831C069EE71E04D
:1019400082E196E00E940D0B82E00E94FD0827C014
:101950006BEF71E082E196E00E940D0B82E00E9445
:10196000FD081DC069E072E082E196E00E940D0B67
:1019700081E00E94FD0813C06CE172E082E196E014
:101980000E940D0B82E00E94FD0809C06CE272E02B
:1019900082E196E00E940D0B83E00E94FD0865EB5A
:1019A00071E083E296E00E940D0B6091D505709185
:1019B000D60582E196E00E944B0B20E030E040E249
:1019C00051E46091D9057091DA058091DB05909121
:1019D000DC050E94D5170E94EF1683E296E00E9474
:1019E0004B0B65C26BE372E082E196E00E940D0B47
:1019F00064E472E083E296E00E940D0B58C26FE44B
:101A000072E082E196E00E940D0B60E571E083E2F6
:101A100096E00E940D0B4BC26FE572E082E196E00A
:101A20000E940D0B66E672E083E296E00E940D0BC9
:101A30003EC263E772E082E196E00E940D0B6AE726
:101A400072E083E296E00E940D0B31C261E872E021
:101A500082E196E00E940D0B60E571E083E296E082
:101A60000E940D0B24C26BE872E082E196E00E94B6
:101A70000D0B60E571E083E296E00E940D0B17C24A
:101A800067E171E082E196E00E940D0B66E972E089
:101A900083E296E00E940D0B0AC260EA72E082E1E6
:101AA00096E00E940D0B6DEA72E083E296E00E94E0
:101AB0000D0BFDC16EEB72E082E196E00E940D0B12
:101AC00060E571E083E296E00E940D0BF0C16EEBE1
:101AD00072E082E196E00E940D0B6DEC72E083E211
:101AE00096E00E940D0BE3C16EEB72E082E196E09E
:101AF0000E940D0B6EED72E083E296E00E940D0BEA
:101B0000D6C16FEE72E082E196E00E940D0B60E5B7
:101B100071E083E296E00E940D0BC9C16BEF72E0A9
:101B200082E196E00E940D0B60E571E083E296E0B1
:101B30000E940D0BBCC167E073E082E196E00E9459
:101B40000D0B60E571E083E296E00E940D0BAFC1E2
:101B500063E173E082E196E00E940D0B60E571E0C5
:101B600083E296E00E940D0BA2C16FE173E082E177
:101B700096E00E940D0B60E571E083E296E00E9422
:101B80000D0B95C168E273E082E196E00E940D0BB7
:101B900060E571E083E296E00E940D0B88C161E38D
:101BA00073E082E196E00E940D0B60E571E083E254
:101BB00096E00E940D0B7BC168E373E082E196E042
:101BC0000E940D0B60E571E083E296E00E940D0B30
:101BD0006EC16FE373E082E196E00E940D0B60E559
:101BE00071E083E296E00E940D0B61C16BE473E04B
:101BF00082E196E00E940D0B60E571E083E296E0E1
:101C00000E940D0B54C164EF72E082E196E00E94E5
:101C10000D0B66E972E083E296E00E940D0B47C16E
:101C200060E073E082E196E00E940D0B66E972E0ED
:101C300083E296E00E940D0B3AC167E573E082E112
:101C400096E00E940D0B60E571E083E296E00E9451
:101C50000D0B2DC163E673E082E196E00E940D0B4F
:101C600060E571E083E296E00E940D0B20C16FE613
:101C700073E082E196E00E940D0B60E571E083E283
:101C800096E00E940D0B13C160E873E082E196E0DC
:101C90000E940D0B60E571E083E296E00E940D0B5F
:101CA00006C161E973E082E196E00E940D0B60E5F8
:101CB00071E083E296E00E940D0BF9C062EA73E0E6
:101CC00082E196E00E940D0B60E571E083E296E010
:101CD0000E940D0BECC063EB73E082E196E00E9482
:101CE0000D0B60E571E083E296E00E940D0BDFC012
:101CF00064EC73E082E196E00E940D0B60E571E018
:101D000083E296E00E940D0BD2C0E0910D06F091A7
:101D10000E06E431F10508F08FC0E75AFF4F0C942E
:101D2000641865ED73E082E196E00E940D0B84C0BB
:101D300066EE73E082E196E00E940D0B7DC067EFD6
:101D400073E082E196E00E940D0B76C068E074E0DB
:101D500082E196E00E940D0B6FC069E174E082E1C0
:101D600096E00E940D0B68C06AE274E082E196E0A2
:101D70000E940D0B61C06BE374E082E196E00E946B
:101D80000D0B5AC06BE474E082E196E00E940D0BEB
:101D900053C06BE574E082E196E00E940D0B4CC0ED
:101DA0006BE674E082E196E00E940D0B45C06BE7A4
:101DB00074E082E196E00E940D0B3EC06BE874E097
:101DC00082E196E00E940D0B37C06BE974E082E17E
:101DD00096E00E940D0B30C06CEA74E082E196E060
:101DE0000E940D0B29C06DEB74E082E196E00E9429
:101DF0000D0B22C06EEC74E082E196E00E940D0BA8
:101E00001BC06FED74E082E196E00E940D0B14C0E0
:101E100060EF74E082E196E00E940D0B0DC061E07E
:101E200075E082E196E00E940D0B06C062E175E06C
:101E300082E196E00E940D0BE0910D06F0910E06F6
:101E4000EE0FFF1FE258FA4F6081718182E196E048
:101E50000E944B0B80910D0690910E06880F991FE2
:101E6000FC01E258FA4FDC01AA5ABA4F20813181B5
:101E70008D919C912817390739F463E275E083E26C
:101E800096E00E940D0B13C069E275E083E296E0D4
:101E90000E940D0B0CC06AE375E082E196E00E949F
:101EA0000D0B61E475E083E296E00E940D0BE2E128
:101EB000F6E0108A11A208950F931F93CF93DF933A
:101EC00090E0FC013197E431F10508F04DC1E35990
:101ED000FF4F0C9464181092100610920F06109287
:101EE000110642C181E0809311060E94E609882311
:101EF00039F081E08093100689E080930F0634C1A9
:101F000081E08093100686E080930F062DC18AE061
:101F100080931106809310068BE080930F0624C1F6
:101F20008CE080931106809310068DE080930F065D
:101F30001BC18EE080931106809310068FE0809382
:101F40000F0612C180E1809311068093100681E193
:101F500080930F0609C186E18093110680931006D5
:101F600087E180930F0600C184E18093110680937E
:101F7000100685E180930F06F7C082E18093110679
:101F80008093100683E180930F06EEC088E1809372
:101F900011068093100689E180930F06E5C08AE15F
:101FA00080931106809310068CE180930F06DCC0AD
:101FB0008DE180931106809310068FE180930F06C8
:101FC000D3C0809111068F5F8093110690910F0608
:101FD000981708F0C9C08091100680931106C4C0FC
:101FE00080911106815080931106909110068917F7
:101FF00008F0BAC080910F0680931106B5C07093A7
:102000000E0660930D0680E2809311068093100601
:1020100080930F06A9C0E0910D06F0910E06CF0146
:10202000880F991FDC01A258BA4FEC01CA5ADA4F47
:10203000888199818D939C93E431F10508F094C0D7
:10204000EF57FF4F0C94641860E070E083E00E944B
:102050005C0F8AC060E070E084E00E945C0F84C086
:1020600060E070E085E00E945C0F7EC060E070E0A0
:1020700086E00E945C0F78C060E070E08CE00E9417
:102080005C0F72C060E070E08BE00E945C0F6CC07F
:1020900060E070E087E00E945C0F66C060E070E086
:1020A00089E00E945C0F60C060E070E08AE00E94FE
:1020B0005C0F5AC084E690E00E940B0A0AE910E027
:1020C000C0E0D0E0F801619171918F01CE010E94D2
:1020D00073052196C431D105A9F746C085E090E08B
:1020E0000E940B0A80910D0690910E060E945505E4
:1020F0003BC020910D0630910E06C901880F991F33
:10210000FC01E258FA4F40815181FC01EE53FF4F30
:1021100080819181481759073CF5220F331FF9013F
:10212000E258FA4F4F5F5F4F518340831DC080914B
:102130000D0690910E069C01220F331FF901E25803
:10214000FA4F40815181F901E651FF4F20813181E1
:10215000241735074CF4880F991FFC01E258FA4FF9
:1021600041505109518340830E94EC0BDF91CF9184
:102170001F910F91089520EB34E03093610020937C
:102180006000E09111064E2F50E04132510508F0F9
:102190003EC2FA01EB56FF4F0C94641883FF02C055
:1021A00092E001C090E080FD90E082FF3FC260E0DD
:1021B00070E090E067C283FD04C081FB992790F92D
:1021C00001C093E080FD91E182FF33C260E070E0E6
:1021D00092E158C283FD04C081FB992790F901C0A8
:1021E00094E080FD91E182FF27C260E070E092E11F
:1021F00049C283FD04C081FB992790F901C095E095
:1022000080FD91E182FF1BC260E070E092E13AC282
:1022100083FD04C081FB992790F901C09BE080FDFC
:1022200091E182FF0FC260E070E092E12BC283FD7A
:1022300004C081FB992790F901C097E080FD91E1EE
:1022400082FF03C260E070E092E11CC283FD04C023
:1022500081FB992790F901C09DE080FD91E182FF0B
:10226000F7C160E070E092E10DC283FD04C081FB24
:10227000992790F901C09CE080FD91E182FFEBC1BC
:1022800060E070E092E1FEC183FD04C081FB99270C
:1022900090F901C096E080FD91E182FFDFC160E02E
:1022A00070E092E1EFC183FD04C081FB992790F9B2
:1022B00001C098E080FD91E182FFD3C160E070E051
:1022C00092E1E0C181FF02C092E001C090E083FD95
:1022D00099E080FD91E182FFC7C160E070E092E18A
:1022E000D1C181FF02C092E001C090E083FD9AE07D
:1022F00080FD91E182FFBBC160E070E092E1C2C16C
:1023000081FF02C092E001C090E083FD9EE080FD6D
:1023100091E182FFAFC160E070E092E1B3C181FF63
:1023200002C092E001C090E083FF04C061E070E071
:102330009EE002C060E070E080FD91E182FFA2C1FA
:1023400092E1A0C181FF02C092E001C090E083FF52
:1023500004C062E070E09EE002C060E070E080FDDA
:1023600091E182FF8FC192E18DC181FF02C092E0B5
:1023700001C090E083FF04C063E070E09EE002C013
:1023800060E070E080FD91E182FF7CC192E17AC162
:1023900081FF02C092E001C090E083FF04C064E0CE
:1023A00070E09EE002C060E070E080FD91E182FF9D
:1023B00069C192E167C181FF02C092E001C090E073
:1023C00083FF04C065E070E09EE002C060E070E062
:1023D00080FD91E182FF56C192E154C181FF02C0AC
:1023E00092E001C090E083FF04C068E070E09EE0EE
:1023F00002C060E070E080FD91E182FF43C192E1A4
:1024000041C181FF02C092E001C090E083FF04C09F
:1024100069E070E09EE002C060E070E080FD91E164
:1024200082FF30C192E12EC181FF02C092E001C063
:1024300090E083FF04C06CE070E09EE002C060E0CA
:1024400070E080FD91E182FF1DC192E11BC181FF1F
:1024500002C092E001C090E083FF04C06DE070E034
:102460009EE002C060E070E080FD91E182FF0AC161
:1024700092E108C181FF02C092E001C090E083FFB9
:1024800004C06AE070E09EE002C060E070E080FDA1
:1024900091E182FFF7C092E1F5C081FF02C092E0B6
:1024A00001C090E083FF04C066E070E09EE002C0DF
:1024B00060E070E080FD91E182FFE4C092E1E2C063
:1024C00081FF02C092E001C090E083FF04C067E09A
:1024D00070E09EE002C060E070E080FD91E182FF6C
:1024E000D1C092E1CFC081FF02C092E001C090E074
:1024F00083FF04C06BE070E09EE002C060E070E02B
:1025000080FD91E182FFBEC092E1BCC081FF02C0AC
:1025100098E001C090E083FF04C06EE070E09EE0B0
:1025200002C060E070E080FD91E182FFABC092E10B
:10253000A9C081FF02C098E001C090E083FF04C001
:102540006FE070E09EE002C060E070E080FD91E12D
:1025500082FF98C092E196C081FF02C098E001C05E
:1025600090E083FF04C060E170E09EE002C060E0A4
:1025700070E080FD91E182FF85C092E183C081FF20
:1025800002C098E001C090E083FF04C061E170E008
:102590009EE002C060E070E080FD91E182FF72C0C9
:1025A00092E170C081FF02C098E001C090E083FF1B
:1025B00004C062E170E09EE002C060E070E080FD77
:1025C00091E182FF5FC092E15DC081FF02C098E0AF
:1025D00001C090E083FF04C063E170E09EE002C0B0
:1025E00060E070E080FD91E182FF4CC092E14AC062
:1025F00081FF02C09FE001C090E083FD90E180FD7B
:1026000094E182FF3AC060E070E093E13BC083FD5B
:1026100004C081FB992790F901C091E080FD91E011
:1026200082FF2EC060E070E091E02CC060E070E0BE
:1026300029C060E070E026C060E070E023C060E088
:1026400070E020C060E070E01DC060E070E01AC083
:1026500060E070E017C060E070E014C060E070E01F
:1026600011C060E070E00EC060E070E00BC060E0A0
:1026700070E008C060E070E005C060E070E002C09B
:1026800060E070E0892F0E945C0F0895CF93C3B380
:10269000CF7080910C0690E0809590952C2F30E0C3
:1026A00082239323892B19F08C2F0E94BB10C09397
:1026B0000C06CF910895FC0171836083538342839C
:1026C000358324831682178210861186128613861C
:1026D0001486158616861786108A118A81E0868BE5
:1026E0000895FC01168217821086118612861386C1
:1026F0001486158616861786108A118A0895CF9239
:10270000DF92EF92FF926B017C0120E030E04FE717
:1027100053E40E94D01718166CF020E030E0A901B5
:10272000C701B6010E947816882364F4C12CD12C0D
:10273000760108C00F2EC12CD12CFFE7EF2EF3E459
:10274000FF2EF02DC701B6010E94EF16862FFF90D5
:10275000EF90DF90CF9008956F927F928F929F922B
:10276000AF92BF92CF92DF92EF92FF920F931F939F
:10277000CF93DF93EC01CB01BA019A888B887C88D8
:102780006D88A90198010E940B16162F072FB82EED
:10279000A92E862F902FAB2DBA2D8A8B9B8BAC8BBD
:1027A000BD8BE881F98160817181072E000C880B57
:1027B000990B0E94201720E030E048EC52E40E9480
:1027C0007D16212F302F4B2D5A2D0E94D5176B01CE
:1027D0007C0120E030E04FE753E40E94D017181648
:1027E0004CF480E090E0AFE7B3E48E839F83A8874A
:1027F000B98717C020E030E04FE753ECC701B601BE
:102800000E94781688232CF0CE82DF82E886F98633
:1028100008C080E090E0AFE7B3EC8E839F83A88789
:10282000B987EA81FB8160817181072E000C880BDA
:10283000990B0E94201720E030E048EC52E40E94FF
:102840007D16212F302F4B2D5A2D0E94D5172A850A
:102850003B854C855D850E940C166B017C0120E058
:1028600030E04FE753E40E94D01718164CF480E094
:1028700090E0AFE7B3E48A879B87AC87BD8717C03A
:1028800020E030E04FE753ECC701B6010E94781614
:1028900088232CF0CA86DB86EC86FD8608C080E0A3
:1028A00090E0AFE7B3EC8A879B87AC87BD878E89C2
:1028B000882329F01E8A912E802E7B2C6A2CEC8195
:1028C000FD8160817181072E000C880B990B0E949D
:1028D000201720E030E048EC52E40E947D166B01A6
:1028E0007C01212F302F4B2D5A2D692D782D872DCE
:1028F000962D0E940B169B01AC01C701B6010E94E8
:10290000D5176B017C0120E030E04FE753E40E94D3
:10291000D01718164CF480E090E0AFE7B3E48E8750
:102920009F87A88BB98B17C020E030E04FE753ECAE
:10293000C701B6010E94781688232CF0CE86DF8668
:10294000E88AF98A08C080E090E0AFE7B3EC8E87B0
:102950009F87A88BB98B2A853B854C855D856E81C9
:102960007F81888599850E940C162E853F85488930
:1029700059890E940C160E947F13DF91CF911F91FD
:102980000F91FF90EF90DF90CF90BF90AF909F900E
:102990008F907F906F9008950F931F93CF93DF9345
:1029A000E5E3F6E080E090E041E050E0EF012681D1
:1029B000222309F453C0213019F02230E9F035C048
:1029C000DC01AA0FBB1FAA0FBB1FAA0FBB1FA81BAE
:1029D000B90BAB5CB94F14962C91A281B3816C9169
:1029E0008A0102C0000F111F2A95E2F79801209575
:1029F000309526232C9319C0DC01AA0FBB1FAA0F08
:102A0000BB1FAA0FBB1FA81BB90BAB5CB94F149619
:102A10002C91A281B3816C918A0102C0000F111F19
:102A20002A95E2F79801262B2C93DC01AA0FBB1FF5
:102A3000AA0FBB1FAA0FBB1FA81BB90BAB5CB94FDA
:102A400014962C91A881B9816C91EA0102C0CC0F37
:102A5000DD1F2A95E2F79E01262B2C9301963796CF
:102A60008230910509F0A2CFDF91CF911F910F9194
:102A70000895E5E3F6E0A081B1811C92A281B381C3
:102A80001C92148215821682A781B0851C92A185A2
:102A9000B2851C921386148615860895CF93DF9312
:102AA000809134068F5F80933406811149C0E5E33D
:102AB000F6E080E090E041E050E025812223C9F17A
:102AC0002681213019F02230D1F033C0EC01CC0F37
:102AD000DD1FCC0FDD1FCC0FDD1FC81BD90BCB5C5E
:102AE000D94F2C81A281B3816C91EA0102C0CC0F35
:102AF000DD1F2A95E2F79E01262B2C931AC0EC01CC
:102B0000CC0FDD1FCC0FDD1FCC0FDD1FC81BD90B79
:102B1000CB5CD94F2C81A281B3816C91EA0102C0B8
:102B2000CC0FDD1F2A95E2F79E01209530952623D4
:102B30002C93019637968230910509F0BECF49C09B
:102B4000E5E3F6E020E030E061E070E09581891790
:102B5000C8F19681913019F09230E1F033C0E9016B
:102B6000CC0FDD1FCC0FDD1FCC0FDD1FC21BD30B25
:102B7000CB5CD94F4C81A281B3819C91EB0102C007
:102B8000CC0FDD1F4A95E2F7AE01409550954923E1
:102B90004C9318C0E901CC0FDD1FCC0FDD1FCC0F0B
:102BA000DD1FC21BD30BCB5CD94F4C81A281B381FB
:102BB0009C91EB0102C0CC0FDD1F4A95E2F7AE01FC
:102BC000492B4C932F5F3F4F37962230310509F048
:102BD000BDCFDF91CF91089527E0829FC0011124DE
:102BE000FC01EB5CF94F6583089537E0839FC001DA
:102BF0001124FC01EB5CF94F7183608353834283A2
:102C00002483089527E0829FC0011124FC01EB5C1E
:102C1000F94F668308955058BB27AA270E942316B0
:102C20000C9496170E94881738F00E948F1720F096
:102C300039F49F3F19F426F40C9485170EF4E095AF
:102C4000E7FB0C947F17E92F0E94A71758F3BA17D8
:102C5000620773078407950720F079F4A6F50C94B2
:102C6000C9170EF4E0950B2EBA2FA02D0B01B90158
:102C700090010C01CA01A0011124FF27591B99F0F2
:102C8000593F50F4503E68F11A16F040A22F232FFE
:102C9000342F4427585FF3CF469537952795A7954E
:102CA000F0405395C9F77EF41F16BA0B620B730BF5
:102CB000840BBAF09150A1F0FF0FBB1F661F771F66
:102CC000881FC2F70EC0BA0F621F731F841F48F41B
:102CD000879577956795B795F7959E3F08F0B0CFA4
:102CE0009395880F08F09927EE0F9795879508958B
:102CF0000E945B1708F481E008950E9491160C94DD
:102D000096170E948F1758F00E94881740F029F4F8
:102D10005F3F29F00C947F1751110C94CA170C9443
:102D200085170E94A71768F39923B1F3552391F3F0
:102D3000951B550BBB27AA2762177307840738F02A
:102D40009F5F5F4F220F331F441FAA1FA9F335D087
:102D50000E2E3AF0E0E832D091505040E695001C3B
:102D6000CAF72BD0FE2F29D0660F771F881FBB1FF5
:102D7000261737074807AB07B0E809F0BB0B802DD3
:102D8000BF01FF2793585F4F3AF09E3F510578F0FF
:102D90000C947F170C94CA175F3FE4F3983ED4F36A
:102DA000869577956795B795F7959F5FC9F7880FD3
:102DB000911D9695879597F90895E1E0660F771F25
:102DC000881FBB1F621773078407BA0720F0621BB6
:102DD000730B840BBA0BEE1F88F7E09508950E94E1
:102DE000AF1788F09F5798F0B92F9927B751B0F0D7
:102DF000E1F0660F771F881F991F1AF0BA95C9F77F
:102E000014C0B13091F00E94C917B1E008950C943C
:102E1000C917672F782F8827B85F39F0B93FCCF3EF
:102E2000869577956795B395D9F73EF490958095FB
:102E3000709561957F4F8F4F9F4F0895E89409C01B
:102E400097FB3EF490958095709561957F4F8F4FDD
:102E50009F4F9923A9F0F92F96E9BB279395F695F3
:102E6000879577956795B795F111F8CFFAF4BB0F71
:102E700011F460FF1BC06F5F7F4F8F4F9F4F16C0D5
:102E8000882311F096E911C0772321F09EE8872F5F
:102E9000762F05C0662371F096E8862F70E060E01B
:102EA0002AF09A95660F771F881FDAF7880F969594
:102EB000879597F90895990F0008550FAA0BE0E838
:102EC000FEEF16161706E807F907C0F012161306EC
:102ED000E407F50798F0621B730B840B950B39F42C
:102EE0000A2661F0232B242B252B21F408950A2692
:102EF00009F4A140A6958FEF811D811D089597F9D2
:102F00009F6780E870E060E008959FEF80EC08958F
:102F100000240A94161617061806090608950024B8
:102F20000A9412161306140605060895092E039432
:102F3000000C11F4882352F0BB0F40F4BF2B11F4A6
:102F400060FF04C06F5F7F4F8F4F9F4F089557FD05
:102F50009058440F551F59F05F3F71F04795880F07
:102F600097FB991F61F09F3F79F08795089512169E
:102F700013061406551FF2CF4695F1DF08C016164A
:102F800017061806991FF1CF8695710561050894FB
:102F90000895E894BB2766277727CB0197F9089512
:102FA0000E945B1708F48FEF08950E94E8170C94B5
:102FB00096170E94881738F00E948F1720F09523EB
:102FC00011F00C947F170C94851711240C94CA17D8
:102FD0000E94A71770F3959FC1F3950F50E0551FFE
:102FE000629FF001729FBB27F00DB11D639FAA275E
:102FF000F00DB11DAA1F649F6627B00DA11D661FAD
:10300000829F2227B00DA11D621F739FB00DA11DCD
:10301000621F839FA00D611D221F749F3327A00D87
:10302000611D231F849F600D211D822F762F6A2F23
:1030300011249F5750409AF0F1F088234AF0EE0F88
:10304000FF1FBB1F661F771F881F91505040A9F7B5
:103050009E3F510580F00C947F170C94CA175F3F78
:10306000E4F3983ED4F3869577956795B795F795F1
:10307000E7959F5FC1F7FE2B880F911D9695879569
:1030800097F90895A1E21A2EAA1BBB1BFD010DC0E2
:10309000AA1FBB1FEE1FFF1FA217B307E407F50708
:1030A00020F0A21BB30BE40BF50B661F771F881FE4
:1030B000991F1A9469F760957095809590959B017A
:1030C000AC01BD01CF010895EE0FFF1F0590F491F3
:1030D000E02D0994A29FB001B39FC001A39F700D82
:1030E000811D1124911DB29F700D811D1124911D10
:1030F0000895A8E1B0E042E050E00C9486180E94E8
:103100009418272F0C949518DC01CB01FC01E19950
:10311000FECF06C0FFBBEEBBE09A31960DB20D921A
:1031200041505040B8F70895262FE199FECF9FBB3C
:103130008EBB2DBB0FB6F894E29AE19A0FBE0196B2
:063140000895F894FFCF92
:10314600B004B3120909121209001F427275747293
:1031560061756D2D00537465756572756E670053E4
:10316600656C627374746573740062697474652047
:1031760077617274656E2E2E2E0075017501000042
:103186000000000000003C003C00050005001E0099
:103196001E0001000000B80B4B00F401B80B4B00F9
:1031A600F401900190013200320032003200B40086
:1031B600B400090009003C003C0001000100204E5B
:1031C600204E204E204E204E204E000000000000D3
:1031D6000000CEFFCEFF000000000000000000004F
:1031E60000000000000000000000000000000000D9
:1031F60000005A7765692052E1756D65006D697446
:103206002057656E64756E670045696E205261755C
:103216006D006F686E652057656E64756E67002871
:1032260031292054656D703A2023232E23DF432055
:103236000028312954656D703A2023232E23DF435D
:10324600202A0028312953656E732044656623239E
:103256002E23DF43002831296E6F20737570706F3F
:103266007274002831297A75207761726D3A2323AA
:103276002E23DF4320002831294252414E44474540
:103286004641485221002831294465616B746976AC
:10329600696572740020466575636874653A202313
:1032A600232E2325002832292054656D703A2023C9
:1032B600232E23DF43200028322954656D703A20DF
:1032C60023232E23DF43202A0028322953656E73D9
:1032D6002044656623232E23DF43002832296E6FA0
:1032E60020737570706F7274002832297A75207792
:1032F60061726D3A23232E23DF43200028322942B0
:1033060052414E44474546414852210028322944FD
:1033160065616B7469766965727400536F6C6C775E
:103326006572740054656D706572617475720053D0
:103336006368616C7468797374657265736500534C
:10334600656E736F72004B616C6962726965727546
:103356006E670041626BF5686C0050686173656E5C
:103366000057656E64657A61686C0057656E6465C2
:1033760064617565720045494E202F204155530002
:103386005A7572F5636B7365747A656E007F2045B6
:103396005343202020202020204F4B207E005265C2
:1033A60067656C706172616D6574657200526175F6
:1033B6006D20202020202020202020203100526156
:1033C600756D202020202020202020202032005330
:1033D6006F6C6C205261756D203100536F6C6C20E0
:1033E6005261756D20320048797374657265736534
:1033F6002031004879737465726573652032004F19
:1034060066667365742031004F6666736574203294
:1034160000436F6F6C203100436F6F6C2032005792
:10342600656E64657A61686C20310057656E646507
:103436007A61686C20320057656E64657A656974D6
:1034460020310057656E64657A65697420320052D2
:103456006567656C706172616D2E204B702031005E
:10346600526567656C706172616D2E204B69203103
:1034760000526567656C706172616D2E204B642029
:103486003100526567656C706172616D2E204B70FC
:10349600203200526567656C706172616D2E204B3B
:1034A60069203200526567656C706172616D2E200D
:1034B6004B64203200545F736F6C6C20313A2023CA
:1034C600232E23DF4300545F736F6C6C20323A2047
:1034D60023232E23DF43004F666673657420313A3B
:1034E6002023232E23DF43004F6666736574203244
:1034F6003A2023232E23DF4300487973742E20318C
:103506003A202023232E23DF4300487973742E208C
:10351600323A202023232E23DF4300436F6F6C2093
:10352600313A20202323236D696E00436F6F6C2090
:10353600323A20202323236D696E005261756D2077
:10354600313A2020202020232323005261756D204C
:10355600323A20202020202323230057656E6465FD
:103566006E20313A20232F6461790057656E6465B9
:103576006E20323A20232F646179004461756572AA
:1035860020313A20202020202323730044617565D2
:103596007220323A2020202020232373004B7020F3
:1035A600313A20202020202023232E2323004B697C
:1035B60020313A20202020202023232E2323004BB5
:1035C6006420313A20202020202023232E2323008C
:1035D6004B7020323A20202020202023232E232324
:1035E600004B6920323A20202020202023232E233E
:1035F60023004B6420323A20202020202023232E33
:103606002323007F20455343007F2045534320203A
:1036160020202053415645207E004665686C657221
:0C3626000054657874206665686C7400C0
:00000001FF
